S01800004763634170706C69636174696F6E31302E737265632A
S11300000C942A000C9434000C9434000C943400A6
S11300100C9434000C9434000C9434000C9434008C
S11300200C9434000C9434000C9434000C9434007C
S11300300C9434000C9434000C9434000C9434006C
S11300400C9434000C9434000C9434000C9434005C
S11300500C94340011241FBECFE5D4E0DEBFCDBF25
S11300600E9436000C949F030C9400008FEF8ABB0F
S113007081BB87BB84BB81E090E0E2E0F0E020E05C
S113008030E06BB3AC01022E02C0440F551F0A943A
S1130090E2F7462B4BBB4FE758E361E04150504039
S11300A06040E1F700C000005BB3B9016250710920
S11300B0DC0102C0AA0FBB1F6A95E2F74A2F4095E4
S11300C045234BBB2F5F3F4F2A303105D1F620E04B
S11300D030E068B3AC01022E02C0440F551F0A94ED
S11300E0E2F7462B48BBBFE748E351E0B15040403C
S11300F05040E1F700C0000058B3B90162507109E3
S1130100DC0102C0AA0FBB1F6A95E2F74A2F409593
S1130110452348BB2F5F3F4F2A303105D1F620E0FD
S113012030E065B3AC01022E02C0440F551F0A949F
S1130130E2F7462B45BBBFE748E351E0B1504040EE
S11301405040E1F700C0000055B3B9016250710995
S1130150DC0102C0AA0FBB1F6A95E2F74A2F409543
S1130160452345BB2F5F3F4F2A303105D1F620E0B0
S113017030E062B3AC01022E02C0440F551F0A9452
S1130180E2F7462B42BBBFE748E351E0B1504040A1
S11301905040E1F700C0000052B3B9016250710948
S11301A0DC0102C0AA0FBB1F6A95E2F74A2F4095F3
S11301B0452342BB2F5F3F4F2A303105D1F631979B
S11301C009F05DCF42E050E020E030E020FD18C0AF
S11301D0EBB3BC01022E02C0660F771F0A94E2F74C
S11301E07E2F762B7BBBBFEFE0E7F2E0B150E0401F
S11301F0F040E1F700C000007BB3609567236BBB60
S11302002F5F3F4F2830310509F720E030E020FD13
S113021018C0E8B3BC01022E02C0660F771F0A940F
S1130220E2F77E2F762B78BBAFEFB0E7E2E0A15088
S1130230B040E040E1F700C0000078B36095672368
S113024068BB2F5F3F4F2830310509F720E030E0CD
S113025020FD18C0E5B3BC01022E02C0660F771F53
S11302600A94E2F77E2F762B75BBFFEFA0E7B2E08E
S1130270F150A040B040E1F700C0000075B36095B4
S1130280672365BB2F5F3F4F2830310509F720E016
S113029030E020FD18C0E2B3BC01022E02C0660F9C
S11302A0771F0A94E2F77E2F762B72BBEFEFF0E70D
S11302B0A2E0E150F040A040E1F700C0000072B3BA
S11302C06095672362BB2F5F3F4F2830310509F7E4
S11302D027C0B90161707078772334F461507109D3
S11302E06E6F7F6F6F5F7F4F61307105D9F4EBB331
S11302F0BC01022E02C0660F771F0A94E2F77E2F1C
S1130300762B7BBBBFEFE0E7F2E0B150E040F0407A
S1130310E1F700C000007BB3609567236BBB02C0AC
S113032020E030E02F5F3F4F2830310591F627C0A1
S1130330B90161707078772334F4615071096E6F7C
S11303407F6F6F5F7F4F61307105D9F4E8B3BC01F3
S1130350022E02C0660F771F0A94E2F77E2F762BD7
S113036078BBAFEFB0E7E2E0A150B040E040E1F786
S113037000C0000078B36095672368BB02C020E02A
S113038030E02F5F3F4F2830310591F627C0B90187
S113039061707078772334F4615071096E6F7F6FE8
S11303A06F5F7F4F61307105D9F4E5B3BC01022E54
S11303B002C0660F771F0A94E2F77E2F762B75BB77
S11303C0FFEFA0E7B2E0F150A040B040E1F700C079
S11303D0000075B36095672365BB02C020E030E080
S11303E02F5F3F4F2830310591F627C0B901617066
S11303F07078772334F4615071096E6F7F6F6F5F8B
S11304007F4F61307105D9F4E2B3BC01022E02C002
S1130410660F771F0A94E2F77E2F762B72BBEFEFFD
S1130420F0E7A2E0E150F040A040E1F700C0000096
S113043072B36095672362BB02C020E030E02F5F97
S11304403F4F2830310591F64150510909F0BCCE97
S113045062E070E040E050E0EBB39C01042E02C087
S1130460220F331F0A94E2F73E2F322B3BBBBFEF20
S1130470E0E7F2E0B150E040F040E1F700C00000F6
S11304803BB3209523232BBB2FEF30E7A2E0215071
S11304903040A040E1F700C000004F5F5F4F48309C
S11304A05105D1F640E050E0E8B39C01042E02C0AF
S11304B0220F331F0A94E2F73E2F322B38BBBFEFD3
S11304C0E0E7F2E0B150E040F040E1F700C00000A6
S11304D038B32095232328BB2FEF30E7A2E0215027
S11304E03040A040E1F700C000004F5F5F4F48304C
S11304F05105D1F640E050E0E5B39C01042E02C062
S1130500220F331F0A94E2F73E2F322B35BBBFEF85
S1130510E0E7F2E0B150E040F040E1F700C0000055
S113052035B32095232325BB2FEF30E7A2E02150DC
S11305303040A040E1F700C000004F5F5F4F4830FB
S11305405105D1F640E050E0E2B39C01042E02C014
S1130550220F331F0A94E2F73E2F322B32BBBFEF38
S1130560E0E7F2E0B150E040F040E1F700C0000005
S113057032B32095232322BB2FEF30E7A2E0215092
S11305803040A040E1F700C000004F5F5F4F4830AB
S11305905105D1F66150710909F05CCF62E070E059
S11305A040E050E0EBB39C01042E02C0220F331F45
S11305B00A94E2F73E2F322B3BBB38B3322B38BBC5
S11305C035B3322B35BB32B3232B22BB4F5F5F4F86
S11305D04830510539F7BFEFE4E3FCE0B150E040A7
S11305E0F040E1F700C0000040E050E0EBB39C01B4
S11305F0042E02C0220F331F0A94E2F720953E2FE7
S113060032233BBB38B3322338BB35B3322335BB3B
S113061032B3232322BB4F5F5F4F4830510531F77C
S11306202FEF34E34CE0215030404040E1F700C06C
S113063000006150710909F0B3CF62E070E020E07E
S113064030E0EBB3AC01022E02C0440F551F0A94F4
S1130650E2F74E2B4BBB2F5F3F4F2830310589F714
S113066020E030E0E8B3AC01022E02C0440F551F75
S11306700A94E2F74E2B48BB2F5F3F4F28303105D9
S113068089F720E030E0E5B3AC01022E02C0440F4C
S1130690551F0A94E2F74E2B45BB2F5F3F4F28307E
S11306A0310589F720E030E0E2B3AC01022E02C04C
S11306B0440F551F0A94E2F74E2B42BB2F5F3F4F66
S11306C02830310589F75FEFA0E7B2E05150A04030
S11306D0B040E1F700C0000040E050E0EBB39C0103
S11306E0042E02C0220F331F0A94E2F720953E2FF6
S11306F032233BBB38B3322338BB35B3322335BB4B
S113070032B3232322BB4F5F5F4F4830510531F78B
S1130710EFEFF0E722E0E150F0402040E1F700C0C5
S113072000006150710909F08ACF3FEF41E15AE7B7
S1130730315040405040E1F700C000009ECCF89496
S1050740FFCFE5
S9030000FC
